:03000000020ADF12
:0F0ADF00787FE4F6D8FD75A000758120020A0D1E
:100AB40054454D503A200046414E204F4E200046AA
:070AC400414E204F464600A1
:080A5500C2A1D2A27F057E00C0
:100A5D00E4FDFCC3ED9FEC9E5015E4FBFA0BBB00CF
:0F0A6D00010ABA04F8BBFBF50DBD00010C80E4D3
:010A7C002257
:0A0B09008F90C2A0120A55C2A2226A
:100A7D00AE07EE75F00A842430FDEE75F00A84E5BC
:060A8D00F02430F9AF0572
:0A0A93008F90D2A0120A55C2A222D1
:100ACB007F38120B097F0C120B097F01120B097F68
:040ADB0080020B0981
:0D0AFC00120A7DAF01120A937F43020A9394
:0F0A9D00120A5D120AEE8F097F86120B09AF094C
:080AAC00120A7DAF01020A935A
:0D0AEE00C2A4D2A420A3FDC2A5AFB0D2A522
:010AFB0022D8
:10080000780A7C007D007BFF7A0A79B47E007F073E
:100810001209E778117C007D007BFF7A0A79BB7EA4
:10082000007F081209E778197C007D007BFF7A0AB7
:1008300079C37E007F081209E7120AEE8F097F80D4
:10084000120B09E4F508740A2508F8E6FF120A936A
:100850000508E508C3940640EDAF09120AFCE50956
:10086000C394195020D2A67FC0120B09E4F5087476
:10087000192508F8E6FF120A930508E508C394074E
:1008800040ED02090DC2A67FC0120B09E4F5087401
:10089000112508F8E6FF120A930508E508C3940736
:1008A00040EDE509C394194023E509941E501DE568
:1008B00009C394194057E509941E5051C2A67F32CE
:1008C0007E00120A5DD2A6120A9D80E3E509C39458
:1008D0001E4025E5099423501FE509C3941E402DB1
:1008E000E50994235027C2A67F4B7E00120A5DD2F1
:1008F000A67F19120A9D80E1E509C39423400EE505
:1009000009C394234007C2A6120AA080F27F2C7E5E
:0709100001120A5D02083923
:100A0D007580FF75B0FFD2A3D2A5D2A4D2A6120ACB
:100A1D00CB7F80120B097F57120A937F45120A93E1
:100A2D007F4C120A937F43120A937F4F120A937FD2
:100A3D004D120A937F45120A937F647E00120A5D60
:080A4D007F01120B09020800F1
:10091700E709F608DFFA8046E709F208DFFA803EC2
:1009270088828C83E709F0A3DFFA8032E309F608AF
:10093700DFFA8078E309F208DFFA807088828C8317
:10094700E309F0A3DFFA806489828A83E0A3F608CB
:10095700DFFA805889828A83E0A3F208DFFA804CA5
:1009670080D280FA80C680D4806980F2803380107C
:1009770080A680EA809A80A880DA80E280CA8033E5
:1009870089828A83ECFAE493A3C8C582C8CCC5835D
:10099700CCF0A3C8C582C8CCC583CCDFE9DEE7802D
:1009A7000D89828A83E493A3F608DFF9ECFAA9F0AC
:1009B700EDFB2289828A83ECFAE0A3C8C582C8CC02
:1009C700C583CCF0A3C8C582C8CCC583CCDFEADE1B
:1009D700E880DB89828A83E493A3F208DFF980CC7D
:1009E70088F0EF60010E4E60C388F0ED2402B40476
:1009F7000050B9F582EB2402B4040050AF2323451D
:060A0700822390096773D1
:00000001FF
